:020000040802F0
:1000000000060030E90D020801F60F08810302081E
:1000100089F50F0881F50F0885F50F08EB0D02082B
:10002000EB0D0208EB0D0208EB0D0208C5281508C0
:10003000EB0D0208EB0D0208EB0D0208EB0D0208B8
:10004000EB0D0208EB0D0208EB0D0208EB0D0208A8
:10005000EB0D0208EB0D0208EDDB150819DC1508A5
:1000600045DC150871DC15089DDC150845381508B8
:100070006D38150899381508C5381508F138150870
:1000800019391508453915085534150869E70F0859
:10009000EB0D020879E70F08EB0D0208C9DC150823
:1000A000EB0D020855DE1508EB0D020869DE150898
:1000B0006DDE150881DE1508EB0D0208E14015081C
:1000C00011411508EB0D0208EB0D0208C94A15088D
:1000D000E14A1508B5DD1508C9DD1508DDDD15088F
:1000E0002DDD1508EB0D0208EB0D020895DE150855
:1000F000EB0D0208EB0D0208EB0D02087139150833
:10010000EB0D0208A1DD1508EB0D0208F94A1508F0
:10011000F1DD150805DE1508EB0D0208EB0D0208F0
:100120009D391508C5391508F13915081D3A150806
:10013000493A1508EB0D0208EB0D0208EB0D020819
:10014000EB0D0208EB0D0208EB0D0208EB0D0208A7
:10015000713A15089D3A1508C93A150819DE1508AF
:10016000EB0D0208EB0D0208EB0D0208EB0D020887
:10017000EB0D020849D81508EB0D0208EB0D02083B
:10018000EB0D0208EB0D02082DDE150841DE150807
:10019000114B1508EB0D0208EB0D0208EB0D0208E0
:1001A000EB0D0208EB0D0208EB0D0208EB0D020847
:1001B000EB0D0208EB0D0208EB0D0208414115089A
:1001C00071411508EB0D0208EB0D0208EB0D02085A
:1001D000EB0D020835D81508EB0D0208EB0D0208EF
:1001E000EB0D0208EB0D0208EB0D0208EB0D020807
:1001F000EB0D0208EB0D0208EB0D0208EB0D0208F7
:10020000EB0D0208EB0D0208EB0D0208EB0D0208E6
:10021000EB0D0208EB0D0208EB0D0208EB0D0208D6
:10022000EB0D0208EB0D0208EB0D0208EB0D0208C6
:10023000EB0D0208EB0D0208EB0D020889341508DE
:10024000EB0D020811361508393615086536150804
:1002500091361508BD361508E93615081537150805
:1002600041371508EB0D0208EB0D0208EB0D0208F3
:10027000EB0D0208EB0D0208EB0D0208EB0D020876
:10028000EB0D0208EB0D0208EB0D0208EB0D020866
:10029000EB0D0208EB0D0208EB0D0208EB0D020856
:1002A000EB0D0208EB0D0208EB0D0208EB0D020846
:1002B000EB0D0208EB0D0208EB0D0208EB0D020836
:1002C000EB0D0208EB0D0208EB0D0208EB0D020826
:1002D000EB0D0208EB0D0208EB0D0208EB0D020816
:1002E00095E80208351F03084160030809CB03089D
:1002F0001D3D040885F30408CD3505084DB80508F3
:10030000B11F0708AD7E09080585090865110A08AF
:10031000057C0A0875850A08C5880A08B1100B080B
:1003200025170B08413A0B083D450B08A5D20B08D1
:1003300095B30C0869450D084D520D081DEA0F08CC
:100340003DEE0F08650A1008218A1108B1CA11088C
:100350006D2A1208115D12081DE713085D011408CB
:10036000993C1408195B1408A1811408798C1408AD
:10037000F1BE1408B5C41408FFFFFFFFFFFFFFFF25
:10038000EFF30383EFF30982EFF30881DFF814D072
:100390002DE9FE4F68460BF093F9BDE8FE4F8D4600
:1003A000704700002C350030F1EE101AA0EC200A46
:1003B00001607047A0EC108A704700BF81F00041D7
:1003C00002E000BF83F0004330B54FEA41044FEA3A
:1003D000430594EA050F08BF90EA020F1FBF54EAD5
:1003E000000C55EA020C7FEA645C7FEA655C00F071
:1003F000E2804FEA5454D4EB5555B8BF6D420CDD42
:100400002C4480EA020281EA030382EA000083EAC4
:10041000010180EA020281EA0303362D88BF30BD64
:1004200011F0004F4FEA01314FF4801C4CEA1131BA
:1004300002D0404261EB410113F0004F4FEA033319
:100440004CEA133302D0524263EB430394EA050FA4
:1004500000F0A780A4F10104D5F1200E0DDB02FA13
:100460000EFC22FA05F2801841F1000103FA0EF2A7
:10047000801843FA05F359410EE0A5F120050EF16D
:10048000200E012A03FA0EFC28BF4CF0020C43FA9E
:1004900005F3C01851EBE37101F0004507D54FF0AB
:1004A000000EDCF1000C7EEB00006EEB0101B1F5FB
:1004B000801F1BD3B1F5001F0CD349085FEA300041
:1004C0004FEA3C0C04F101044FEA445212F5800F4C
:1004D00080F09A80BCF1004F08BF5FEA500C50F1E9
:1004E000000041EB045141EA050130BD5FEA4C0CCC
:1004F000404141EB0101013C28BFB1F5801FE9D229
:1005000091F0000F04BF01460020B1FA81F308BF4B
:100510002033A3F10B03B3F120020CDA0C3208DD17
:1005200002F1140CC2F10C0201FA0CF021FA02F1F2
:100530000CE002F11402D8BFC2F1200C01FA02F162
:1005400020FA0CFCDCBF41EA0C019040E41AA2BF87
:1005500001EB0451294330BD6FEA04041F3C1CDA4F
:100560000C340EDC04F11404C4F1200220FA04F06F
:1005700001FA02F340EA030021FA04F345EA030119
:1005800030BDC4F10C04C4F1200220FA02F001FADB
:1005900004F340EA0300294630BD21FA04F029465D
:1005A00030BD94F0000F83F4801306BF81F48011F6
:1005B0000134013D4EE77FEA645C18BF7FEA655C69
:1005C00029D094EA050F08BF90EA020F05D054EA3B
:1005D000000C04BF1946104630BD91EA030F1EBF40
:1005E0000021002030BD5FEA545C05D14000494144
:1005F00028BF41F0004130BD14F580043CBF01F537
:10060000801130BD01F0004545F0FE4141F470011C
:100610004FF0000030BD7FEA645C1ABF19461046F7
:100620007FEA655C1CBF0B46024650EA013406BFF8
:1006300052EA033591EA030F41F4002130BD00BFB7
:1006400090F0000F04BF0021704730B54FF4806474
:1006500004F132044FF000054FF0000150E700BFF5
:1006600090F0000F04BF0021704730B54FF4806454
:1006700004F1320410F0004548BF40424FF0000141
:100680003EE700BF42004FEAE2014FEA31014FEA84
:1006900002701FBF12F07F4393F07F4F81F06051D3
:1006A000704732F07F4208BF704793F07F4F04BF1E
:1006B00041F40021704730B54FF4607401F00045FB
:1006C00021F000411CE700BF50EA010208BF70475B
:1006D00030B54FF000050AE050EA010208BF70474C
:1006E00030B511F0004502D5404261EB41014FF4B5
:1006F000806404F132045FEA915C3FF4D8AE4FF0BD
:1007000003025FEADC0C18BF03325FEADC0C18BF9F
:10071000033202EBDC02C2F1200300FA03FC20FAF0
:1007200002F001FA03FE40EA0E0021FA02F114443D
:10073000BDE600BF80F0004002E000BF81F0004154
:1007400042001FBF5FEA410392EA030F7FEA226C77
:100750007FEA236C6AD04FEA1262D2EB1363C1BF07
:10076000D218414048404140B8BF5B42192B88BF76
:10077000704710F0004F40F4000020F07F4018BF99
:10078000404211F0004F41F4000121F07F4118BFB9
:10079000494292EA030F3FD0A2F1010241FA03FC61
:1007A00010EB0C00C3F1200301FA03F100F0004349
:1007B00002D5494260EB4000B0F5000F13D3B0F111
:1007C000807F06D340084FEA310102F10102FE2A80
:1007D00051D2B1F1004F40EBC25008BF20F00100F0
:1007E00040EA03007047490040EB0000013A28BF8F
:1007F000B0F5000FEDD2B0FA80FCACF1080CB2EB12
:100800000C0200FA0CF0AABF00EBC250524218438F
:10081000BCBFD0401843704792F0000F81F4000134
:1008200006BF80F400000132013BB5E74FEA410307
:100830007FEA226C18BF7FEA236C21D092EA030F73
:1008400004D092F0000F08BF0846704790EA010FED
:100850001CBF0020704712F07F4F04D1400028BF1A
:1008600040F00040704712F100723CBF00F50000FC
:10087000704700F0004343F0FE4040F40000704732
:100880007FEA226216BF08467FEA236301464202DE
:1008900006BF5FEA412390EA010F40F480007047F1
:1008A0004FF0000304E000BF10F0004348BF404297
:1008B0005FEA000C08BF704743F0964301464FF0D3
:1008C00000001CE050EA010208BF70474FF000032F
:1008D0000AE000BF50EA010208BF704711F0004370
:1008E00002D5404261EB41015FEA010C02BF844640
:1008F0000146002043F0B64308BFA3F18053A3F59F
:100900000003BCFA8CF2083AA3EBC25310DB01FAE5
:1009100002FC634400FA02FCC2F12002BCF1004F69
:1009200020FA02F243EB020008BF20F001007047FA
:1009300002F1200201FA02FCC2F1200250EA4C004E
:1009400021FA02F243EB020008BF20EADC70704794
:100950007BB972B90029BEBF00204FF0004106E00C
:1009600008BF00281CBF6FF000414FF0FF3000F0BF
:1009700039BAADF1080C6DE904CE002909DB002B72
:100980001ADB00F0C7F8DDF804E0DDE9022304B06B
:100990007047404261EB4101002B1BDB00F0BAF8CD
:1009A000DDF804E0DDE9022304B0404261EB4101DF
:1009B000524263EB43037047524263EB430300F040
:1009C000A9F8DDF804E0DDE9022304B0404261EB60
:1009D00041017047524263EB430300F09BF8DDF89E
:1009E00004E0DDE9022304B0524263EB43037047A5
:1009F00053B94AB9002908BF00281CBF4FF0FF3186
:100A00004FF0FF3000F0EEB9ADF1080C6DE904CE07
:100A100000F080F8DDF804E0DDE9022304B070475F
:100A200030B1012390FAA0F0B0FA80F0184470477A
:100A300008460029FBD02123F4E700BF430803F058
:100A40005533C01A830803F0333300F033301844B1
:100A500000EB101000F00F3000EB002000EB004026
:100A6000000E704708B502460B4643EC172BB5EE57
:100A7000C07BF1EE10FA03D4BDE8084000F02AB8BC
:100A8000B1EE477B51EC170B00F024F8404261EBCC
:100A9000410108BD9FED0B6B07EE900A9FED0B5BCC
:100AA000B7EEE77A27EE066BBCEEC66BB8EE464BA8
:100AB000A4EE457BFCEEC77B16EE101A17EE900AEB
:100AC000704700BF000000000000F03D0000000083
:100AD0000000F0419FED0B6B41EC170B9FED0B5BA2
:100AE00027EE066BBCEEC66BB8EE464BA4EE457B1C
:100AF000FCEEC77B16EE101A17EE900A704700BF87
:100B0000AFF30080000000000000F03D0000000096
:100B10000000F0412DE9F047089D04468E46002B69
:100B20004DD18A42944669D9B2FA82F252B101FAA1
:100B300002F3C2F1200120FA01F10CFA02FC41EAB1
:100B4000030E94404FEA1C48210CBEFBF8F61FFA36
:100B50008CF708FB16E341EA034306FB07F19942D1
:100B60000AD91CEB030306F1FF3080F01F81994284
:100B700040F21C81023E63445B1AA4B2B3FBF8F05E
:100B800008FB103344EA034400FB07F7A7420AD9E5
:100B90001CEB040400F1FF3380F00A81A74240F20D
:100BA00007816444023840EA0640E41B00261DB178
:100BB000D4400023C5E900433146BDE8F0878B42AD
:100BC00009D9002D00F0EF800026C5E9000130466C
:100BD0003146BDE8F087B3FA83F6002E4AD18B4246
:100BE00002D3824200F2F980841A61EB03030120F0
:100BF0009E46002DE0D0C5E9004EDDE702B9FFDEDC
:100C0000B2FA82F2002A40F09280A1EB0C014FEA86
:100C10001C471FFA8CFE0126200CB1FBF7F307FBE3
:100C2000131140EA01410EFB03F0884208D91CEB86
:100C3000010103F1FF3802D2884200F2CB80434623
:100C4000091AA4B2B1FBF7F007FB101144EA014402
:100C50000EFB00FEA64508D91CEB040400F1FF3191
:100C600002D2A64500F2BB800846A4EB0E0440EA7F
:100C700003409CE7C6F12007B34022FA07FC4CEA88
:100C8000030C20FA07F401FA06F31C43F9404FEA7B
:100C90001C4900FA06F3B1FBF9F8200C1FFA8CFE90
:100CA00009FB181140EA014108FB0EF0884202FAE4
:100CB00006F20BD91CEB010108F1FF3A80F08880A5
:100CC000884240F28580A8F102086144091AA4B262
:100CD000B1FBF9F009FB101144EA014100FB0EFEE3
:100CE0008E4508D91CEB010100F1FF346CD28E4512
:100CF0006AD90238614440EA0840A0FB0294A1EBA3
:100D00000E01A142C846A64656D353D05DB1B3EBFF
:100D1000080261EB0E0101FA07F722FA06F3F1402F
:100D20001F43C5E9007100263146BDE8F087C2F1D6
:100D30002003D8400CFA02FC21FA03F3914001434E
:100D40004FEA1C471FFA8CFEB3FBF7F007FB103687
:100D50000B0C43EA064300FB0EF69E4204FA02F433
:100D600008D91CEB030300F1FF382FD29E422DD986
:100D7000023863449B1B89B2B3FBF7F607FB1633BB
:100D800041EA034106FB0EF38B4208D91CEB01013B
:100D900006F1FF3816D28B4214D9023E6144C91ABB
:100DA00046EA004638E72E46284605E70646E3E6CB
:100DB0001846F8E64B45A9D2B9EB020864EB0C0ED5
:100DC0000138A3E74646EAE7204694E74046D1E7E4
:100DD000D0467BE7023B614432E7304609E7644492
:100DE000023842E7704700BF02E000F000F8FEE77B
:100DF00072B6374880F30888364880F30988364849
:100E00003649086040F20000CCF200004EF6347122
:100E1000CEF200010860BFF34F8FBFF36F8F40F237
:100E20000000C0F2F0004EF68851CEF200010860DA
:100E3000BFF34F8FBFF36F8F4FF00000E1EE100A4A
:100E40004EF63C71CEF200010860062080F3148853
:100E5000BFF36F8F3BF164FF36F15AFF4FF055300F
:100E60001F491B4A91423CBF41F8040BFAE71D4958
:100E7000184A91423CBF41F8040BFAE71A491B4A51
:100E80001B4B9A423EBF51F8040B42F8040BF8E7A3
:100E900000201849184A91423CBF41F8040BFAE778
:100EA0003BF17CFF36F1B8FF144C154DAC4203DA30
:100EB00054F8041B8847F9E70DF036FC114C124D2D
:100EC000AC4203DA54F8041B8847F9E73BF164BFEE
:100ED00000060030002200300000020808ED00E0AB
:100EE0000000003000060030D06B190800220030EE
:100EF0002C33003030330030BC120230E0020208E4
:100F00007803020878030208780302082DE9F04FFD
:100F10002DED108AC1F80CD0D0F80CD0BDEC108AA1
:100F2000BDE8F08F002383F311882846A0470020F6
:100F300036F1D4FCFEE736F13DFB00DFFEE70000B2
:100F400038B510EE104AC4F30A53B3F57D7FB7EEFF
:100F5000C07A1ED227EE077BB3F5667F6FD327EEEC
:100F6000071B634B93ED142B93ED125B93ED0E3B3C
:100F7000A7EE025B93ED0C0B93ED104BA7EE030B6A
:100F800027EE017BA1EE040BA5EE070BB7EEC00B1D
:100F900038BD40F22E42934254D8554991ED086B2A
:100FA00027EE066BFDEEC66B91ED0A5B16EE903AEE
:100FB00003F500031B1613F0020F06EE903A01F141
:100FC000700208BF0A46D807B8EEE66BA6EE457B6E
:100FD00027EE076B1AD503F0030301EBC30393ED70
:100FE000002B92ED1A4B92ED185B92ED163BA6EE9C
:100FF000045B27EE027B27EE064B26EE046BA4EE85
:10100000037BA5EE067BB7EEC70B38BD92ED142B24
:1010100092ED127B92ED0E3B92ED0C0B92ED104B8C
:1010200026EE065BA6EE027BA6EE030B26EE056B14
:10103000A5EE040BA7EE060BB7EEC00B38BDB7EE5E
:10104000000A38BDB3F5FF6F3DD22A4BC4F383626B
:1010500003EB820153F822200D69C4F31603C4F395
:10106000C25043F400038340086A03FB02F2A3FB6F
:101070000010E3FB050202F100518D0F01F0404129
:10108000511AFFF729FB1C4B9FED177B05EBD4741E
:1010900041EC160B14F0020FA3F1700208BF1346C7
:1010A000E90726EE077B27EE076B10D504F0030453
:1010B00002EBC40494ED002B93ED1A4B93ED185BF7
:1010C00093ED163B93E7BDE8384000F053B893ED3D
:1010D000142B93ED127B93ED0E3B93ED0C0B93EDE4
:1010E000104B9DE7AFF30080182D4454FB21193CB1
:1010F0001CEF1508BCEE15088CEF150810B582B072
:101100008DED010A044603F0FFFD9DED010A046028
:1011100002B010BD28B1F1EE407A27EE800A2220FD
:10112000ECE7F0EE407A27EE800A2220E6E700BFE7
:101130009FED010AEEE700BF000000109FED010ADD
:10114000E8E700BF0000201A9FED010AE2E700BFB8
:10115000000000709FED060AFFEE007AB7EE007AFD
:1011600000284FF0220047FE277A87EE800AC5E765
:101170000000000070EE407AB4EE400A87EEA77AD5
:10118000F1EE10FAB0EE470A01D62120B6E770471B
:10119000B0EE407B17EE903A1B4A23F00043934297
:1011A0001BDD1A4A934202DD30EE400B704700B55A
:1011B00085B0684601F06CFA00F0030001289DED4F
:1011C000021B9DED000B0CD0022812D070B1012043
:1011D00002F090FC05B05DF804FB9FED091B02F0E6
:1011E00099B802F087FCB1EE400BF3E702F092F8F9
:1011F000F0E702F08FF8B1EE400BEBE7AFF30080C1
:101200000000000000000000FB21E93FFFFFEF7F2E
:10121000B0EE407B17EE903A1B4A23F00043934216
:101220001CDD1A4A934202DD30EE400B704700B5D8
:1012300085B0684601F02CFA00F0030001289DED0E
:10124000021B9DED000B0ED0022813D070B102F0EE
:1012500061F8B1EE400B05B05DF804FB9FED081B93
:10126000002002F047BC02F055F8F4E7012002F03C
:1012700041FCF0E7012002F03DFCB1EE400BEAE753
:101280000000000000000000FB21E93FFFFFEF7FAE
:1012900038B510EE105A25F00044B4F1A14FF0EE2D
:1012A000407A0ADBB4F1FF4F57DCDFED517A9FED56
:1012B000510A002D37FE800A38BD4F4B9C425BDC43
:1012C000B4F1445F4CDB4FF0FF3267EEA76ADFED0D
:1012D0004B4ADFED4B5A9FED4B5A9FED4B4A26EEA2
:1012E000A67AB0EE666AE7EE245A531CDFED474A51
:1012F000DFED476AA5EE875AE7EE246ADFED455A2F
:10130000DFED454AE6EE875AA5EE074A9FED435AC0
:10131000DFED436AA5EE875AE4EE074ADFED415A56
:10132000E4EE876AE5EE075A66EE866A25EE877A6E
:1013300037D03D4B03EB820376EE876A93ED000ACC
:1013400093ED047A96EEA70A002D70EE677A37EED9
:10135000670AB1DAB1EE400A38BD30EE000A38BD96
:101360009FED327A30EE077AF7EE006AB4EEE67A55
:10137000F1EE10FAA7DD38BD00F0D0F82C4B9C42FE
:1013800016DCA3F5D0039C4227DCF0EE007ABFEE1A
:10139000007AA0EE277A002230EE270AC7EE007A04
:1013A00093E776EE876AE6EEE77AB0EE670A38BD35
:1013B000204B9C420BDCF7EE087AB7EE007AA0EEE9
:1013C000277A022230EE670AC0EE077A7DE7BFEE89
:1013D000007AC7EE007A032277E7F7EE007A30EE64
:1013E000677A30EE270A0122C7EE007A6DE700BF68
:1013F000DB0FC93FDB0FC9BFFFFFDF3ED769853C6D
:1014000059DA4B3D356B883D6E2EBA3D21A215BD94
:101410006BF16EBD95879DBD2549123E388EE3BDAB
:10142000ABAAAA3ECDCC4CBEE4E91508CAF249717C
:10143000FFFF973FFFFF1B4010EE103A40F22A419A
:10144000C3F30A528A42B7EEC03A32D8B7EE000B65
:101450002D4B93ED4A2B93ED481BB0EE417BA2EE52
:10146000037B17EE100A37EE417B00F01F0203EBFF
:10147000C20130B492EE037B93ED4C4B53F83240F3
:101480004D6893ED4E6B93ED505BA4EE076B27EE2A
:10149000074B00210A1905EBC033A5EE070B43ECFF
:1014A000172BA6EE040B30BC20EE070BB7EEC00BDB
:1014B000704713F5000F20D0B2F5FF6F1AD2DFEDA1
:1014C000137AB4EEE70AF1EE10FA10DCDFED107AD1
:1014D000B4EEE70AF1EE10FA12D4DFED0E7AB4EEB4
:1014E000E70AF1EE10FAB1D50020FFF727BE002081
:1014F000FFF72ABE30EE000A70479FED070A7047DB
:101500000020FFF715BE00BF04EA15081772B142AC
:10151000B4F1CFC2CF8ECEC20000000010EE103A60
:1015200023F0004300EE103A704700BF10EE102A7F
:1015300022F0004310B4B3F1FF4F4FF000040460F9
:1015400017DAB3B112F0FF4F10EE101A09D1DFED28
:101550000B7A60EE277A6FF0180417EE901A21F0DC
:101560000043DB157E3B234421F0FF42036042F041
:101570007C5200EE102A5DF8044B70470000004CCE
:1015800010EE103AB3F17E5F10EE101A38D0A3F5CA
:101590000002B2F1FE4F36D2BFEE000B01F1404225
:1015A000264B02F54D02C2F3C34003EB001093ED4E
:1015B000404B93ED445B93ED467B93ED426BD30D33
:1015C000DB0590ED002BCB1A03EE903A90ED021B59
:1015D000D215B7EEE33AA2EE030B03EE902A20EE0B
:1015E000002BA5EE007BB8EEE33BA6EE027BA3EE5C
:1015F000041B30EE010BA2EE070BB7EEC00B7047D9
:101600009FED0F0A70475A0014D0B3F1FF4F14D06A
:10161000002B0BDBB2F17F4F08D2DFED0A7A60EED0
:10162000277A17EE903AA3F13861B5E700EE103A49
:10163000FFF7A0BD0120FFF78DBD70476CEC1508CA
:10164000000000000000004B10EE103AB3F17E5F86
:101650003ED0A3F50001B1F1FE4F10EE102A3AD2B0
:10166000BFEE002B02F14043284903F54D03C3F3BD
:10167000C34001EB001091ED424B91ED447B91EDA5
:10168000406B91ED465BD90DC9052DED028B90EDB8
:10169000021B90ED008B521ADB1500EE103A03EEA0
:1016A000902AB8EEC00BB7EEE33A30EE010BA8EE8D
:1016B000032BBDEC028B22EE023BA4EE027BA5EED7
:1016C000020BA6EE037BA3EE070BB7EEC00B704731
:1016D0009FED0F0A7047590014D0B3F1FF4F14D09B
:1016E000002B0BDBB1F17F4F08D2DFED0A7A60EE01
:1016F000277A17EE903AA3F13862B1E700EE103A7C
:10170000FFF738BD0120FFF725BD70474CEB1508EA
:10171000000000000000004B10B485B08DED010A00
:10172000019BC3F3C751A1F17F021E2A2ADC501C82
:1017300023DB162A4FEAD3740BDDC3F3160040F403
:1017400000009639884004B1404205B05DF8044B72
:101750007047164BDDED017A03EB840393ED007ABD
:1017600077EE277ACDED037ADDED037A77EEC77A4F
:1017700017EE903A33F000420ED1002005B05DF82C
:10178000044B7047DDED017AFDEEE77A17EE900A23
:1017900005B05DF8044B7047C3F31600C3F3C7539D
:1017A00040F40000C3F19603D840CCE78CED150857
:1017B00010EE103AC3F3C7527F3A162A10DC002A03
:1017C0001FDB10B4114C44FA02F213420FD103F0A4
:1017D000004380ED000A5DF8044B00EE103A7047BC
:1017E00003F0004380ED000A00EE103A704723EA50
:1017F000020107EE101A5DF8044B016030EE470A53
:10180000704703F000410160704700BFFFFF7F0099
:101810009FED010A704700BF0000C07F30B410EE9A
:10182000103A2DED028BA3F5000110EE902AB1F1D4
:10183000FE4F10EE104A82B04FEA42017ED201F113
:10184000FF3C6FF08070844580F0F980002004F147
:10185000404303F54D03C3F3C341DB0DDB05E21A3F
:10186000DB1507EE903ABFEE001BB24B03EB011104
:1018700091ED004B05EE102AB7EEC55AA4EE051BFC
:1018800093ED444B21EE012B93ED465B93ED403BF2
:10189000A1EE045B93ED426B93ED484BA1EE036B1D
:1018A00022EE023BB8EEE78BB7EEE07A91ED020B49
:1018B00038EE000BA1EE040BA2EE050BA6EE030B17
:1018C00027EE000B10EE903A48F2BF02C3F3CF337D
:1018D000934252D2B7EE007B974B93ED402B30EE04
:1018E000023B13EE102A33EE423B02F01F01821836
:1018F00003EBC10053F83140456830EE433B93EDB4
:10190000465B93ED424BA3EE057BB0EE470B93EDA8
:10191000446B0023181905EBC23141EC170BA3EE01
:10192000046B23EE034BA6EE040B20EE070BB7EE81
:10193000C00B02B0BDEC028B30BC70474D1E6FF087
:101940008070854280F0CE8059004D1E854280F027
:101950009280002B55DB0020B4F5000FBFF477AF69
:10196000DFED767A07EE103A67EE277A17EE904AA7
:1019700024F00044A4F1386469E79FED667BB4EE7F
:10198000C70BF1EE10FA15DC9FED647BB4EEC70BCC
:10199000F1EE10FA20DD4FF04C5388B10193DDEDEC
:1019A000017ABFEE007A77EE677AF4EE477AF1EECD
:1019B00010FA11D002B0BDEC028B30BCFFF7C4BBF3
:1019C0000093DDED007AB7EE007A77EE877AF4EED9
:1019D000477AF1EE10FAEDD19FED527BB4EEC70BD2
:1019E000F1EE10FA57D99FED517BB4EEC70BF1EE33
:1019F00010FA7FF56FAF02B0BDEC028B30BCFFF781
:101A00009DBBC2F3C7517E2911DD962954DC01200C
:101A1000C1F1960100FA01F1481E104207D111EA06
:101A2000020018BF4FF4803024F0004494E700EE29
:101A3000103A02B0BDEC028B30BCFFF79BBB002913
:101A400052D0B3F17E5F2CD06400B4F17F4F2ED81A
:101A5000B1F17F4F2BD1B4F1FE4F4BD0B4F1FE4F1B
:101A60006FEA020234BF00240124D20F94424CD00A
:101A70009FED330A5DE7002B20EE000A1EDB0020FD
:101A800000293AD1002ABFF654AF02B0BDEC028B58
:101A900030BCFFF75FBB02B0BDEC028B30BCFFF780
:101AA00047BB82F48002520012F5000F22D907EEE4
:101AB000903A37EEA00A3CE70020B5E7C2F3C753DF
:101AC000A3F17F001728DAD8C3F19600012303FAA7
:101AD00000F0441E1442D2D11040D1D0B1EE400AE1
:101AE0001846CDE70029AFD184F48002520012F5E8
:101AF000000FDCD8B7EE000A1BE7002ABFF619AFCB
:101B0000F7EE007A87EE800A13E720EEA00A10E7CE
:101B1000AFF3008071D5D1FFFFFF5F40E2AAA3FFC2
:101B2000FFFF5F400000000000C062C00000000036
:101B300000A062C094ED150804EA15080000004BEF
:101B40000000000010EE103A114A23F000439342C7
:101B500018DDB3F1FF4F02DB30EE400A704700B5ED
:101B600083B0684601F0A0FA400000F00200DDED0D
:101B7000010A9DED000AC0F1010002F04DFB03B027
:101B80005DF804FBDFED030A012002F045BB00BF56
:101B9000DA0F493F0000000030B510EE104AC4F3E0
:101BA0000A53B3F57D7FB7EEC06A83B01BD226EE31
:101BB000065BB3F5667F70D326EE052B25EE021B80
:101BC000754B93ED1A3B93ED187B93ED164BA5EEF9
:101BD000037BA2EE046BB0EE460BA7EE010BB7EE53
:101BE000C00B03B030BD40F22E42934260D86A4928
:101BF00091ED087B26EE077BFDEEC77B91ED0A5B3E
:101C000017EE903A03F500031B1613F0020F07EED0
:101C1000903A01F1700208BF0A46D807B8EEE77B98
:101C2000A7EE456BB0EE460B26EE067B1BD403F009
:101C3000030301EBC30392ED1A5B93ED003B92EDBE
:101C4000186B20EE030B92ED164BA7EE056B20EE02
:101C5000075B27EE057BA5EE040BA6EE070BB7EEA0
:101C6000C00B03B030BD92ED142B27EE075B92ED55
:101C7000126B92ED0E3BA7EE026B92ED0C0B92ED08
:101C8000104BA7EE030B27EE057BA5EE040BA6EE8B
:101C9000070BB7EEC00B03B030BD220D12F4FF6F7F
:101CA000DFD1B7EEC55B00EE104A8DED015AD8E7E3
:101CB000B3F5FF6F4BD2394BC4F3836203EB820160
:101CC00053F822200D69C4F31603C4F3C25043F441
:101CD00000038340086A03FB02F2A3FB0010E3FB4E
:101CE000050202F100518D0F01F04041511AFEF73B
:101CF000F3FC2B4B9FED267B05EBD47441EC160BCC
:101D000014F0020FA3F1700208BF1346E90726EE94
:101D1000077B27EE076B1FD404F0030402EBC40417
:101D200093ED1A4B94ED002B93ED185B27EE027B9D
:101D300093ED163BA6EE045B27EE064B26EE046BF6
:101D4000A4EE037BA5EE067BB7EEC70B89E703B0D5
:101D5000BDE83040FFF70EBA93ED142B26EE065B7C
:101D600093ED127B93ED0E3BA6EE027B93ED0C0BF5
:101D700093ED104BA6EE030B26EE056BA5EE040BC0
:101D8000A7EE060BB7EEC00B6BE700BFAFF300800A
:101D9000182D4454FB21193C1CEF1508BCEE150806
:101DA0008CEF150808B52DED048BB0EE408B00F0DC
:101DB00027F9144BB0EE409B93F9003001330FD05C
:101DC000B4EE488BF1EE10FA0AD6B0EE480B02F0F2
:101DD00007FCB7EE007BB4EEC70BF1EE10FA04DCA3
:101DE000B0EE490BBDEC048B08BD02F08DFFBDECDD
:101DF000048B034621221A600348BDE8084002F024
:101E00007DBC00BF00220030A46A190800F026BA89
:101E100008B52DED048BB0EE409BB0EE418B00F089
:101E2000E9FA114B93F9003001330BD0B4EE489B23
:101E3000F1EE10FA06D69FED0A9BB4EE498BF1EE57
:101E400010FA02D0BDEC048B08BD02F05DFF89EEF4
:101E5000090BBDEC048B2123036008BDAFF30080A8
:101E600000000000000000000022003008B52DED49
:101E7000028BB0EE408A00F059FD144B93F900300C
:101E80000133F0EE408A0FD0B4EE488AF1EE10FA3A
:101E90000AD6B0EE480AFFF741FBF7EE007AB4EE3F
:101EA000E70AF1EE10FA04DCB0EE680ABDEC028B32
:101EB00008BD02F029FFBDEC028B034621221A6007
:101EC0000348BDE80840FFF7A3BC00BF0022003074
:101ED000A46A190808B52DED028BB0EE408A00F017
:101EE00049FE144B93F900300133F0EE408A0FD0D5
:101EF000B4EE488AF1EE10FA0AD6B0EE480AFFF7BF
:101F00000DFBF7EE007AB4EEE70AF1EE10FA04DC0E
:101F1000B0EE680ABDEC028B08BD02F0F5FEBDEC28
:101F2000028B034621221A600348BDE80840FFF7F0
:101F30006FBC00BF00220030A46A190800F020BF67
:101F400008B52DED028BF0EE408AB0EE608A00F00D
:101F5000BBFF0E4B93F9003001330BD0F4EE488AEF
:101F6000F1EE10FA06D6DFED0A8AB4EE688AF1EED9
:101F700010FA02D0BDEC028B08BD02F0C5FE88EE5F
:101F8000A80ABDEC028B2123036008BD00220030AB
:101F90000000000008B52DED028BB0EE408A01F084
:101FA00023F8144B93F90030013314D0B4EE488A6F
:101FB000F1EE10FA0FD6B5EEC08AF1EE10FA0AD89B
:101FC000B5EE408AF1EE10FA08D102F09DFE222310
:101FD0009FED090A0360BDEC028B08BD02F094FE80
:101FE000BDEC028B034621221A600448BDE808407C
:101FF000FFF70EBC00220030000080FFA46A190821
:1020000038B510EE905A924B25F000449C422DEDCD
:102010000A8B1DDD10EE103A04F1404404F58014E3
:10202000234308D030EE400B80EE007BBDEC0A8BE2
:10203000B0EE470B38BDBDEC0A8B9FED677B9FED83
:10204000686B20EE077BA0EE067BB0EE470B38BD39
:10205000804B9C420EDCB4F1795F80F28380B7EE56
:10206000006B9FED617B30EE077BB4EEC67BF1EE3B
:1020700010FA74DCB6EE008B02F0B2FAB7EE007B19
:102080009FED5B9B37EE400B20EE088B9FED5AAB2C
:10209000B0EE480B9FED5A1B9FED5B3BA8EE0A1B71
:1020A0009FED5B4BA1EE083B9FED5B6BA3EE084BF6
:1020B0009FED5BCBA4EE086B9FED5B2BA6EE08CBF0
:1020C0002CEE08CB9FED5A5BA8EE092B9FED5ABB77
:1020D000A2EE085BA5EE08BBABEE087BB0EE479B1B
:1020E00000F020FC5C4B9C422ADCB0EE004B8CEEF6
:1020F000093B53EC102B9FED526B9FED377B002279
:1021000043EC122B30EE025BA2EE428B30EE000B62
:1021100088EE051BB0EE465BA1EE447BA2EE445B6D
:1021200090EE037B37EE457B36EE477B002D3FF785
:102130007DAFB1EE477BB0EE470BBDEC0A8B38BDEF
:102140009FED417B8CEE094BB0EE005B9FED246B65
:10215000A0EE040BA0EE057B36EE477BE6E7B0EE83
:10216000407B63E79FED248B20EE006B9FED245BAB
:102170009FED253BA6EE085B9FED254BA5EE063BAC
:102180009FED252BA3EE064BBDEC0A8BA4EE062B90
:102190009FED237B9FED161BA2EE067B27EE067BB1
:1021A0009FED215B9FED223BA6EE015B9FED224B55
:1021B000A5EE063BB7EE005BA3EE064BA4EE065B76
:1021C00087EE056BB0EE407BA0EE067BB0EE470BD2
:1021D00038BD00BFAFF30080075C143326A6913CE6
:1021E000182D4454FB21F93F9C7500883CE4377E50
:1021F00082922EB1C5B8B33F09F7FD0DE13D023F14
:1022000088B20175E0EF493F3B8F68B52882A4BFD3
:102210005544880E55C1C93F7D6FEB0312D6D4BF1C
:10222000555555555555C53F59018D1B6C06E6BF93
:10223000C88A599CE52A00404B2D8A1C273A03C0C6
:10224000182D4454FB21E93F075C143326A691BCAA
:10225000FFFFEF3FFFFFDF3F3233EF3F2DE9F0415C
:1022600051EC110B4342614C21F0004E03434EEA06
:10227000D37382B0A3428DED000B39D8DDE900673E
:102280007342334327F0004848EAD373A3422FD860
:1022900001F1404303F5801303433ED08D1705F051
:1022A000020558EA060345EAD7752AD05EEA00031C
:1022B00038D0A64544D0A04534D0A8EB0E0EBEF1D0
:1022C000747F4FEA2E5338DA002945DA3C3343DA7B
:1022D0009FED380B012D53D0022D48D075B19FEDE5
:1022E000376B9FED387B30EE460B30EE470B05E049
:1022F0009DED006B41EC170B37EE060B02B0BDE80D
:10230000F081022D16D09DED007B9FED300B032D4B
:1023100000FE070B02B0BDE8F08102B0BDE8F0415D
:1023200002F05AB89FED2B0B9FED2C7B002F20FE67
:10233000070BE3E79FED230BE0E79FED260BC9E7D3
:10234000F04505F1FF3524D0022D2AD8284B03EBA8
:10235000C50595ED060BD1E79DED007B41EC160B15
:1023600087EE060B02F03CF902F036F8B2E79FED7B
:10237000136B9FED147B30EE460B37EE400BBDE741
:1023800010EE901A53EC102B01F1004343EC102B8C
:10239000B4E7022D08D8164B03EBC50595ED000BED
:1023A000ACE79FED040BA9E79FED0E0BA6E700BF7E
:1023B000AFF300800000000000000000075C143351
:1023C00026A6A13C182D4454FB210940182D445445
:1023D000FB2109C0182D4454FB21F93F182D44540A
:1023E000FB21F9BF182D4454FB21E93F0000F07F89
:1023F000FCEF15082DE9F04385B08DED001BDDE9FC
:10240000007C2CF0004050EA07038DED020B2FD02A
:10241000039B994A23F0004E964529DC7A4297495E
:102420003A4340EAD2728A4222D8DDF808908645C3
:102430003C464A4603F0004606DCC0F2C880B94577
:10244000C0F0C58000F0FE808C491940D9B9BEF1BA
:10245000000F40F0E080B9F1000F4D4640F30981D4
:10246000A1F213416D00002D01F1FF31FADC0EE005
:102470009DED027B9DED006B27EE067B87EE070B43
:1024800005B0BDE8F0834FEA2E51A1F2FF317B4D3C
:102490000CEA050585B9002840F0AE80002FB8464B
:1024A00040F3E580A5F213454FEA4808B8F1000F64
:1024B00005F1FF35F8DC02E00515A5F2FF35DFF880
:1024C000C081414573DBC3F3130343F48013DFF88A
:1024D000B0E1754559DBCCF3130C4CF4801CD01BD8
:1024E000491B0BD11DE050EA0E0345D04FEADE73C5
:1024F000013903EB40034FEA4E0211D0A3EB0C006D
:10250000944288BF00F1FF300028A2EB040E4FEA8E
:10251000D277E8DA013907EB43034FEA4202EDD103
:10252000101BA3EB0C0C944288BF0CF1FF3CBCF1D8
:10253000000FA4BF0246634653EA020105D11BE027
:10254000D10F01EB43035200013DB3F5801FF7DBD0
:102550004B498D426BDA491B142979DC05F21E4088
:10256000CA4003FA00F043FA01F110430E43334628
:10257000024643EC102B83E7424BF60F03EBC606F3
:1025800096ED000B05B0BDE8F083AEEB050EBEF195
:102590001F0F25DD3C48491BA0EB050C07FA0CFC7E
:1025A00018BF0024AAD1A3EB0C0C1046BFE7A8EB80
:1025B0000108B8F11F0F0DDC01F21E430EFA08FEF0
:1025C00029FA03F309FA08F243EA0E037FE79DEDC7
:1025D000020B55E72C4B5B1A09FA03F3002276E74E
:1025E00000FA0EFC05F21E4027FA00F007FA0EF47E
:1025F00040EA0C0C101B73E74FEAC028B8F1000F3B
:102600001F4D7FF75CAF4FEA4808B8F1000F05F1A6
:10261000FF35F8DC53E74FEACE25002D18497FF748
:1026200036AF6D00002D01F1FF31FADC2FE7A3F585
:1026300080131E4305F2FF3546EA0551104641EC72
:10264000100B1DE70F4B03EB167696ED000B17E70B
:102650001F2907DC05F21E4022FA01F1834043EAFC
:10266000010084E70849491B43FA01F07FE7074D61
:1026700025E706490BE700BFFFFFEF7F0000F07F73
:1026800002FCFFFF2CF01508E2FBFFFFEDFBFFFF54
:1026900070B553EC102B9C4923F000458D4288B057
:1026A00004466ADD99498D421E461BDC002B9FEDD6
:1026B000867B40F3EC8030EE477BA1F51B21A1F532
:1026C000F0618D426AD09FED826B012037EE465B50
:1026D00037EE457B84ED005B37EE467B84ED027B75
:1026E00008B070BD8A498D4260DD8A498D424DDC5B
:1026F0002A1510EE100AA2F21642A5EB025141EC87
:10270000170B9FED755BBDEEC76BB8EEC66B37EE72
:10271000467B27EE057BFDEEC74B8DED026BB8EED9
:10272000E46B37EE467B27EE057BB5EE407BF1EEA2
:1027300010FA8DED046B8DED067B40F0978014EE62
:10274000903A002B0CBF012302237349019102210F
:10275000009102A8214600F075FE002EC0DA94ED2B
:10276000006B94ED027BB1EE466BB1EE477B84EDDE
:10277000006B84ED027B4042B2E700200021C4E9F7
:102780000201002084ED000B08B070BD30EE407BEC
:10279000002084ED027B84ED007BA1E79FED505B80
:1027A0009FED516B37EE457B01208FE701F018FF5D
:1027B000B6EE007B9FED4E5BA0EE057BFDEEC77B8A
:1027C0009FED413B17EE900A9FED416B1F28B8EE3D
:1027D000E75BB1EE454BA5EE430B25EE067B1CDC1B
:1027E0004E4B421E53F82230AB4216D030EE476BB0
:1027F00084ED006B30EE460B30EE470B002E84ED7F
:10280000020BBFF66DAFB1EE466BB1EE400B84ED3F
:10281000006B84ED020B404262E730EE476B16EE30
:10282000903AC3F30A532A15C3EB1555102DDFDD7B
:10283000B0EE403B9FED2A7B9FED2B6BA4EE073B58
:1028400030EE430BA4EE070BB0EE407B95EE067B1B
:1028500033EE476B16EE903AC3F30A53D21A312A7D
:1028600006DCB0EE430B84ED006BC3E703236CE79B
:102870009FED216BB0EE430B9FED212BA4EE060BD9
:1028800033EE407BA4EE067B95EE027BAEE7244957
:1028900030EE077B8D420ED09FED0D6B4FF0FF3079
:1028A00037EE065B37EE457B84ED005B37EE067B4B
:1028B00084ED027B14E79FED0A5B9FED0B6B37EE17
:1028C000057B4FF0FF30EBE700004054FB21F93F60
:1028D0003163621A61B4D03D000000000000704115
:1028E0000000601A61B4D03D7370032E8A19A33BB7
:1028F00083C8C96D305FE43F0000002E8A19A33BF6
:10290000C14920259A837B39FB21E93F7BD90240CD
:10291000FB213941FFFFEF7FBCF015083CF01508A3
:10292000FB21F93FB1EEC00B704700BF08B510EEB8
:10293000102A22F00043B3F17E5F2DED028B12D0FE
:102940000ADCB3F17C5F18DAB3F10C5F6BDCBDEC31
:10295000028B9FED770A08BD70EE407A87EEA70ADA
:10296000BDEC028B08BDBDEC028B9FED720ADFED62
:10297000727A002A30FE270A08BD002AC0F2908031
:10298000F7EE008A38EEC00AB6EE008A20EE088A1A
:10299000B0EE480A00F0BAFCDFED687A9FED687A85
:1029A0009FED686ADFED685ADFED686AA8EE277A66
:1029B000DFED677AA7EE086AE8EE257AE6EE086AA8
:1029C000DFED645A9FED647AE7EE885AA6EE887AC6
:1029D000DFED627A10EE103AE5EE887A23F47F6339
:1029E00023F00F03B0EE476A9FED5D7AF0EE676A61
:1029F000A6EE087A07EE903AB0EE486AE6EE888ACC
:102A0000A7EEE76A70EE276A27EE088A86EE267A36
:102A1000C8EE286ABDEC028BA0EE267A37EE870A54
:102A200030EE000A08BD20EE007ADFED447A9FED1B
:102A3000446ADFED446A9FED445ADFED445AA7EE45
:102A4000276ABDEC028BE6EE076ADFED417A9FED67
:102A5000416AE7EE057AE6EE875AA7EE876A9FEDB0
:102A60003E5ADFED3E7ADFED3E6AA5EE875AE6EE8E
:102A7000077AE5EE076AF7EE005AE7EE875A26EE88
:102A8000877A9FED386ADFED387AC7EE256AB0EEB7
:102A9000467AA0EE667A30EE470A37EEC00A08BDE5
:102AA000B7EE007A30EE070AF6EE007A60EE277A8B
:102AB000DFED226A9FED226ADFED224ADFED225A26
:102AC0009FED225A9FED268AA7EEA66ADFED206AC7
:102AD000E6EE274AE7EEA56ADFED1E5A9FED1E6A75
:102AE000A4EEA75AE6EEA75ADFED1C6AA5EE276A08
:102AF000E5EEA76AA6EE278AA6EEA77A28EE278A31
:102B0000F0EE478AB0EE670A00F000FC88EE286A13
:102B1000DFED167AB0EE407AE7EE067A9FED140A02
:102B200077EE877AF0EE006AA7EEE60A18E700BFB4
:102B3000DB0FC93F00000000DB0F494008EF1138F0
:102B4000047F4F3A461124BD2EC69D3DA80A4E3E35
:102B5000613330BF2D57014090B0A6BE39D119C0A6
:102B6000ABAA2A3E6821A233DA0FC93F6821A2B37B
:102B7000DA0F494038B510EE105A25F00044B4F190
:102B80007E5F2DED048B00F085807ADCB4F17C5FF4
:102B90000FDAB4F1485F80F29C80DFED697A70EE65
:102BA000277AB7EE007AF4EEC77AF1EE10FA00F366
:102BB0008D80FEF7B3FCF7EE007A37EEC00AB6EE72
:102BC000008A20EE088A9FED5F7ADFED5F6A9FED55
:102BD0005F6A9FED5F5ADFED5F5ADFED5F8AE8EED7
:102BE000076A9FED5E7AA8EE067A9FED5D6AA6EE13
:102BF000885AA7EE086A9FED5B7ADFED5B6AE5EE27
:102C0000085AA6EE087AE5EE886AE7EE087AE6EE5C
:102C1000888AB0EE480AB0EE679A00F077FB534B13
:102C20009C4268EE888A42DC10EE103A23F47F63FF
:102C300023F00F0306EE903AA6EEE68A70EE267AAF
:102C400088EE895AC8EE274A9FED497ADFED497A26
:102C5000B0EE006AA4EEC67A30EE000AF0EE675AD3
:102C6000E6EEC65A90EE057A37EE657A37EEC77A09
:102C7000002D0ADCBDEC048BB1EE477AB0EE470ABA
:102C800038BD70EE407A87EEA77ABDEC048BB0EECB
:102C9000470A38BD9FED367ADFED377A20EE077AA6
:102CA000BDEC048BA0EE277AB0EE470A38BD88EE63
:102CB000896A9FED327ADFED307AA0EE060AF0EEF7
:102CC000006AA0EE267A37EEC77AD1E7B0EE407AF6
:102CD000DBE760EE007A9FED1B7ADFED1B6A9FED6C
:102CE0001C6ADFED1A5A9FED1B5AE7EE876ABDECAE
:102CF000048BA6EEA76A9FED197ADFED196AA7EE9D
:102D0000A57AA6EE275AE7EE276ADFED175A9FED60
:102D1000156A9FED117AE5EE275AA6EEA76AA5EE91
:102D2000A77AF7EE006AE6EE276A67EE277AB0EE3A
:102D3000407A87EEA66AA0EE067AB0EE470A38BD62
:102D4000CAF2497108EF1138047F4F3A2EC69D3DF3
:102D5000461124BDA80A4E3EABAA2A3E613330BFBD
:102D60002D57014039D119C090B0A6BE9999793F2D
:102D70002EBD3BB3DB0F493FDB0FC93F2EBD3B33BD
:102D800010B582B0CDED010A019B23F00042B2F1F3
:102D9000FF4FF0EE407A30DC10EE100A20F00041D8
:102DA000B1F1FF4F29DCB3F17E5F40D09C1704F0F6
:102DB000020444EAD07431B372B3B2F1FF4F3ED093
:102DC000B1F1FF4F28D08A1AB2F1F45F4FEAE25115
:102DD00032DA002B40DA3C313EDA9FED330A012C27
:102DE0004CD0022C41D064B19FED307ADFED307AC7
:102DF00030EE070A30EE670A03E09DED017A37EE08
:102E0000270A02B010BD022C0ED09FED2A0A032C17
:102E100000FE270A02B010BD9FED270ADFED277ADA
:102E2000002820FE270AECE79FED210AE9E702B01F
:102E3000BDE81040FEF72CBA9FED1F0ACFE7B1F1B5
:102E4000FF4F04F1FF3420D0022C26D81C4B03EB9B
:102E5000840494ED030AD4E79DED017A87EE870A96
:102E6000FEF75CFBFEF714FAB9E79FED107ADFED91
:102E7000107A30EE070A37EEC00AC2E710EE103AB9
:102E800003F1004300EE103ABBE7022C08D80C4BCC
:102E900003EB840494ED000AB3E79FED030AB0E767
:102EA0009FED080AADE700BF000000002EBDBB3358
:102EB000DB0F4940DB0F49C0DB0FC93FDB0FC9BF48
:102EC000C4F11508DB0F493F30B583B0CDED010AE1
:102ED000019D35F0004041D010EE10EA2EF0004385
:102EE000B3F1FF4F3ADAB0F1FF4F37DC83423BDBFF
:102EF0000EF000443AD01EF0FF4F56D119020029BF
:102F00006FF07D0204DD4900002902F1FF32FADC96
:102F100015F0FF4F57D101026FF07D0C03D449002B
:102F20000CF1FF3CFBD512F17E0F47DBCEF316030D
:102F300043F400031CF17E0F3ADBC5F3160040F4A6
:102F40000000B2EB0C0204D117E00FD04B00013AA5
:102F500013D0191A0029F8DA5B00F8E7DDED017AE1
:102F600060EE277A87EEA70A03B030BD1D4B03EB56
:102F7000547393ED000A03B030BD181A58BF0346CE
:102F80001BB9F3E75B000CF1FF3CB3F5000FF9DB75
:102F90001CF17E0F1CDBA3F500030CF17F0C234317
:102FA00043EACC5300EE103ADEE7DA157F3AAFE79A
:102FB0006FF07D01A1EB0C018840C2E76FF07D014D
:102FC000891A8B40B6E74FEAE05CACF17F0CAAE7C8
:102FD0006FF07D02A2EB0C0C43FA0CF3234300EEDE
:102FE000103AC1E7DCF1150808B510EE103A33F0DD
:102FF00000422DED028B2BD0002B32DBB3F1FF4FC3
:1030000041DAB3F5000F35DB0021DA157F3A0A44C7
:10301000D10FC1F17F0102EBD272C3F3160307EEA9
:10302000902A43EAC15300EE103AB8EEE78AFEF761
:10303000A7FADFED177A9FED177A20EE270ADFED6A
:10304000167AA8EE070AA8EE270ABDEC028B08BD87
:10305000BDEC028B9FED117ADFED117A87EE270A26
:1030600008BDBDEC028B70EE407A9FED0D7A87EEC5
:10307000870A08BDDFED0B7A60EE277A6FF0180142
:1030800017EE903AC1E7BDEC028B30EE000A08BDA6
:10309000D95BDE3EDB27543580209A3E000000CC11
:1030A000000000000000004C70B510EE103A894A94
:1030B00023F00044944286B0054670DD864A94426F
:1030C00010EE106A22DC002BDFED847A844A24F0B3
:1030D0000F04B0EE407A40F3E480944270EE677AD9
:1030E00009BFDFED806A9FED807A9FED807A77EEF1
:1030F000E67A012077EEC76A77EEE67AC5ED006AD8
:1031000077EEC77AC5ED017A06B070BD784A944271
:1031100054DDB4F1FF4F49DAE215863AA4EBC2530D
:1031200007EE903ABDEEE77ADFED726AB8EEC77A45
:1031300077EEC77A8DED037A67EEA67ABDEEE77A71
:10314000B8EEC77A77EEC77A8DED047A67EEA67A85
:10315000F5EE407AF1EE10FACDED057A40F0908070
:10316000B5EE407AF1EE10FA14BF02230123624952
:1031700001910221009103A8294600F013FD002EC1
:10318000C2DA95ED007AD5ED017AB1EE477AF1EE2B
:10319000677A85ED007AC5ED017A4042B4E70022F6
:1031A00085ED000A4260002006B070BD70EE407AE6
:1031B0000020C5ED017AC5ED007AA5E7FEF7AEF96E
:1031C0009FED4E7A9FED456AF6EE007AE0EE077AC3
:1031D0009FED457AFDEEE77A17EE900AF8EEE76A82
:1031E0001F28A6EEC60A66EE877AB1EE666A1EDC76
:1031F000434A411E24F0FF0352F82120934216D087
:1032000030EE677A85ED007A30EE470A002E30EE18
:10321000670A85ED010ABFF677AFB1EE477AB1EEE6
:10322000400A85ED007A85ED010A40426CE730EEF8
:10323000677AE21517EE103AC3F3C753C3EBD454C1
:10324000082CDFDDDFED277A9FED287AF0EE405A7B
:10325000E6EE275A30EE650AA6EE270AF0EE407A2F
:10326000D6EE877A35EEE77A17EE103AC3F3C753F6
:10327000D21A192A06DCB0EE650A85ED007AC3E79A
:10328000032374E79FED1F7A9FED1F5AB0EE650A86
:10329000A6EE070A75EEC07AE6EE077AD6EE857AD4
:1032A000AEE7944270EE277A09BFDFED0E6A9FED1C
:1032B0000E7A9FED0E7A77EEA67A4FF0FF3077EE1A
:1032C000876A77EEE67AC5ED006A77EE877AC5ED14
:1032D000017A19E7D80F493FE3CB1640800FC93F69
:1032E000D00FC93F004435374344353708A3852EF6
:1032F000800F49430000804364F2150884F9223F9F
:10330000E4F1150800A3852E32318D24B1EEC00AF8
:10331000704700BF10EE903A23F00043B3F1795F9D
:103320002DED028B2EDAFDEEC07B17EE903A002BCE
:1033300065D020EE004B9FED358B9FED362B9FED3A
:10334000373BA4EE082B9FED375BA4EE023B9FEDCD
:10335000376BA4EE035B9FED377BA4EE056BA4EE09
:10336000067B24EE077B21EE400BB6EE006BA4EE4D
:10337000070BBDEC028BB7EE007B94EE060B37EE2D
:10338000400B70479FED218B20EE004B9FED212BD2
:103390009FED223BA4EE082B9FED225BA2EE043BA7
:1033A0009FED226BA3EE045B9FED227BA5EE046BE9
:1033B000224AA6EE047B934227EE047BD3DD204A0B
:1033C000934217DCB7EE006B0020A3F5001141EC2F
:1033D000150B36EE456BB6EE003B21EE400B94EE3E
:1033E000035BA4EE070BBDEC028B35EE400B36EE13
:1033F000400B7047B6EE076BB5EE025BEBE7B7EE3E
:10340000000BBDEC028B7047AFF30080D43888BE50
:10341000E9FAA8BDC4B1B4BD9EEE213EAD529C8078
:103420004F7E92BE9015CB19A001FA3E7751C1167E
:103430006CC156BF4C5555555555A53F3233D33FFA
:103440000000E93F2DE9F04F2DED088BADF5157D1E
:103450001C4604930791AD4BA69912F1140F53F833
:103460002150824604F1FF38C0F2A682A849D31E3B
:1034700081FB0301DB17C3EBA10303930133A3EB30
:103480008303DB00D3180693039B15EB0801A3EB22
:1034900008031AD401319FED976BA79819441CAA11
:1034A0000AE050F8234007EE904A0133B8EEE77B7C
:1034B0008B42A2EC027B08D0002BF2DAB0EE467B06
:1034C00001338B42A2EC027BF6D1002DC0F2D482F4
:1034D000049B1CAA02EBC3046CAE4FEAC30C40462B
:1034E000EF180AEBC301B8F1000F9FED827B09DBF7
:1034F00022465346B3EC025B32ED026B8B42A5EEE3
:10350000067BF7D10130B842A6EC027B04F1080437
:10351000E9D107AB08AF03EB85099FED789B07EB7B
:1035200085039FED788B083BDDF818B005930AEB17
:103530000C046CAE2946019594AB03EBC103002942
:1035400013ED280B16DD06EBC1033A4620EE097B8E
:1035500033ED025BB0EE406BBDEEC77BB342B8EE1D
:10356000C77BA7EE486BBDEEC66B37EE050BA2EC32
:10357000016AEBD15846029101F0C8F8B0EE40ABB9
:10358000B4EE000B2AEE000B01F034F8B2EE007B33
:10359000A0EE47ABBDEECABBBBF1000FB8EECB7BD4
:1035A00002993AEE47AB75DD01F1FF3CCBF1180310
:1035B00057F82C2042FA03F000FA03F3D31ACBF1A8
:1035C00017051BEE102A43FA05F50244002D47F8B3
:1035D0002C300BEE102A65DCB5EE40ABF1EE10FAA4
:1035E00040F0C780019B01F1FF3C63450EDC01F117
:1035F0008042013A07EB8202002052F804394A4522
:1036000040EA0300F9D1002840F0F580019B013B1E
:1036100057F82330002B40F0E980059B012553F833
:1036200004290135002AFAD001F1010E0D4470463B
:10363000049B1944039B03EB0E0C0CF1804CA79BDD
:103640000CF1FF3C03EB8C0C1CAB06EBCE0E03EB3A
:10365000C1019CED017AB8EEC77BB8F1000F81ED96
:10366000007B0CF1040C0A469FED226B01F108016E
:1036700009DB534601E032ED027BB3EC025BA3426F
:10368000A5EE076BF7D10130A842AEEC026BE0DD8E
:10369000294651E740F0A0804B1E57F82350ED1506
:1036A000002D99DD1BEE103A002903F101030BEE0A
:1036B000103A40F397813A68002A40F0858001294A
:1036C0002FD03B46012053F8042F002A7FD0431C03
:1036D000C2F18072994247F8202021DD57F823205B
:1036E00007EB810C07EB83036FF07F4013E000BF13
:1036F000AFF30080000000000000000000000000A8
:103700000000703E00000000000070417CF51508CC
:10371000ABAAAA2A1A68821A43F8042B6345F9D186
:103720000122BBF1000F0DDDBBF1010F00F03C8168
:10373000BBF1020F06D1481E57F82030C3F3150322
:1037400047F82030022D7FF447AFB7EE000B30EE84
:103750004AAB002A3FF440AF5846029100F0D6FF32
:103760003AEE40ABB5EE40ABF1EE10FA02993FF401
:1037700039AF069CB0EE4A0B604202958B46019D24
:1037800000F0C4FF9FEDBF6BB4EEC60BF1EE10FA74
:10379000029AC0F24D819FEDBD7B20EE077BBDEE0E
:1037A000C77B0BF10103B8EEC75BA5EE460BBDEE80
:1037B000C00B183410EE101A47F82B1017EE101A21
:1037C000069447F823102DE00123002080E7013004
:1037D00088427FF478AFA4E7B6EE007BB4EEC7ABC7
:1037E000F1EE10FA80F2ED800025F5E601F1010E10
:1037F000704675461CE78B460699A1F1180057F8EC
:103800002C1006902A466346019D59B90BF1804160
:10381000023907EB810151F80449013B1838002CAB
:10382000F9D006900698B7EE000BCDE9012300F021
:103830006DFF029B019A002BC0F236816CA99FEDAF
:10384000936B01EBC30403F1010E07EB8E014FEA0A
:10385000C30C04F1080031ED017AB942B8EEC77B20
:1038600027EE007B20EE060B20ED027BF3D19FEDCF
:10387000894B274600260DF58878002D9FED877B24
:1038800010DBB0EE446B874C3846002103E08E42DB
:1038900008DBB4EC026BB0EC025B01318D42A5EEAB
:1038A000067BF4DA08EBC601B34281ED007BA7F199
:1038B000080706F1010101D00E46DEE7A6990229AC
:1038C0001EDC002900F3908010D19FED747B0CF179
:1038D0000803434433ED026B984537EE067BF9D17C
:1038E0000AB1B1EE477B079B83ED007B1BEE103ADC
:1038F00003F007000DF5157DBDEC088BBDE8F08FDA
:10390000A6990329F2D1002B00F0EB8008EB0C0103
:1039100091ED006B08EBC30131ED027BB0EE465B2D
:10392000884536EE076B37EE467B81ED006B37EE50
:10393000057B81ED027BEFD1012B40F3D28003F1B7
:103940000053C444013BDB009CED006B03F1080114
:10395000414446A831ED027BB0EE465B884236EE2C
:10396000076B37EE467B81ED006B37EE057B81ED13
:10397000027BEFD19FED497B1033434408F11001E6
:1039800033ED026B994237EE067BF9D1002A57D10D
:10399000D8E90001D8E90223079C84ED047BC4E93F
:1039A0000001C4E90223A1E7481E57F82030C3F301
:1039B000160347F82030C5E600216FF01703039186
:1039C00060E51BEE103A002903F101030BEE103AFB
:1039D000C8BF02253FF76FAEB7EE007B37EE4AABAC
:1039E0000225F9E500229CE69FED2C7B08EBCE0E2C
:1039F0003EED026BF04537EE067BF9D198ED006B9A
:103A000082BB0799002B81ED007B36EE477B0BDDF7
:103A100046A80121B0EC026B01318B4237EE067BE8
:103A2000F8DA0AB1B1EE477B079B83ED027B5DE7D5
:103A3000BDEEC00B10EE103A47F82B305B46F1E6B6
:103A400098ED005BB1EE477B98ED026BB1EE455B04
:103A5000079BB1EE466B83ED005B83ED026B83ED5C
:103A6000047B43E70799B1EE475B002B81ED005BD8
:103A700036EE477BCCDCD5E7049B4FEAC30C48E528
:103A8000AFF3008000000000000070410000000063
:103A90000000703E00000040FB21F93F00000000E4
:103AA0000000000094F51508A699022909DC0029F8
:103AB00012DC7FF41BAF9FED0D7B002A3FF413AFA8
:103AC0000FE7A69B032B7FF411AF9FED087B0DF54D
:103AD0008878002AB4D15BE79FED047B0DF58878E8
:103AE0008CE79FED027B002AAAD151E7000000007D
:103AF0000000000010EE903A23F00043B3F1795F2C
:103B000004DAFDEEC07B17EE903A5BB320EE007B4B
:103B10009FED162B9FED173B9FED184BA7EE023B39
:103B20009FED185BA3EE074B9FED186BA4EE075BB0
:103B3000A5EE076B20EE075B30B99FED164BA7EEA5
:103B4000064BA4EE050B70479FED144B26EE456B1C
:103B5000B6EE003BA1EE036B96EE071BA5EE041B31
:103B600030EE410B704700BFAFF300807CD5CF5AD9
:103B70003AD9E53DEB9C2B8AE6E55ABE7DFEB1576E
:103B8000E31DC73ED561C119A0012ABFA6F81011D7
:103B90001111813F495555555555C5BF4955555585
:103BA0005555C53F2DE9F04F2DED048BDBB01C467C
:103BB00003930691A24B6899089253F82150111D66
:103BC000824604F1FF38C0F2A382D31E48BF131D02
:103BD000DB1002930133DB000793DDE907239B1A17
:103BE0000593029B15EB0801A3EB080316D40131E2
:103BF0009FED947A699819441EAA002BA4BF50F82F
:103C0000234007EE904A03F10103ACBFF8EEE77AD8
:103C1000F0EE477A8B42E2EC017AEED1002DC0F251
:103C2000E782039B1EAA02EB830446AE4FEA830C95
:103C30004046EF180AEB8301B8F1000FDFED817AFF
:103C400009DB22465346F3EC016A32ED017A8B42DE
:103C5000E6EE877AF7D10130B842E6EC017A04F15A
:103C60000404E9D109AB0AAF03EB850907EB85032F
:103C7000083B9FED769ADFED748A059804930AEB72
:103C80000C0446AE00955AAB03EB8503002D13EDF3
:103C9000140A4FEA850B16DD06EB85033A4660EE03
:103CA000097AB0EE407AFDEEE77A73ED016AF8EE3C
:103CB000E77AB342A7EEE87A37EEA60ABDEEC77AF6
:103CC000A2EC017AEBD1019000F0EAFDB0EE408A5F
:103CD000B4EE000A28EE000A00F09EFDF2EE007A33
:103CE000A0EE678A01980028FDEEC89AF8EEE97AFE
:103CF00038EE678A79DD05F1FF3EC0F1080357F819
:103D00002E1041FA03FC0CFA03F3CB1AC0F10702A0
:103D100019EE901A43FA02F26144002A47F82E3055
:103D200009EE901A69DCB5EE408AF1EE10FA40F027
:103D3000C080009B05F1FF3B5B4510DC05F1804333
:103D4000013B07EB83030021944653F804294B45BC
:103D500041EA0201F9D16246002940F0F280009B5D
:103D6000013B57F82330002B40F0E780049B4FF0D5
:103D7000010C53F804290CF1010C002AF9D06B1C3A
:103D8000AC449E46039A5119029A02EB030B0BF1C5
:103D9000804B699A0BF1FF3B06EB83051EAB02EBF0
:103DA0008B0B03EB8101DBED017A9FED267AF8EEB8
:103DB000E77AB8F1000F0BF1040BC1ED007A0A4667
:103DC00001F1040109DB534601E072ED017AF3ECE5
:103DD000016AA342A6EEA77AF7D10EF1010EE645DD
:103DE000A5EC017ADFDD65464DE740F09C806B1E57
:103DF00057F823201212002A95DD19EE903A002D73
:103E000003F1010309EE903A40F3988139680029E3
:103E10007FD1012D26D03B464FF0010C53F8041FF3
:103E200000297AD00CF10103C1F580719D4247F859
:103E30002C1016DD57F82310BB4407EB83030AE070
:103E4000CCF5150800000000000080430000803B16
:103E50000000C93F1968C1F1FF0143F8041B5B452D
:103E6000F8D1012100280CDD012800F0488102284A
:103E700007D105F1FF3C57F82C3003F03F0347F81A
:103E80002C30022A7FF44FAFB7EE000A30EE488A9A
:103E900000293FF448AF0992019000F001FD38EE8F
:103EA000408A099A0198B5EE408AF1EE10FA3FF483
:103EB00040AF0292DDE90732B0EE480A981A019548
:103EC000009D00F0EDFC1FED207AB4EEC70AF1EE84
:103ED00010FADDE90132C0F259815FED247A0599CB
:103EE00060EE277A0831FDEEE77A0591F8EEE77A81
:103EF00003F1010BA7EEC70AFDEEE77ABDEEC00A9B
:103F000010EE101A47F8231017EE903A47F82B30AE
:103F10002EE001234FF0000C86E70CF1010CAC45BC
:103F20007FF47CAF9EE7F6EE007AB4EEE78AF1EE1E
:103F300010FA80F2F2800022F5E66B1C9E469C4649
:103F400020E70599A1F1080057F82B1005902B46A2
:103F5000009D69B903F18043023B07EB83030146EF
:103F600053F804090BF1FF3B08390028F8D00591FC
:103F700005980092B7EE000A00F092FCBBF1000F2A
:103F8000009AC0F228814FEA8B0E46AB03EB0E0677
:103F90000EF1040C1FED537A07EB0C03311D73ED8A
:103FA000017AF8EEE77ABB4267EE807A20EE070AE4
:103FB00061ED017AF3D1002D1FED5B6A4FF0000433
:103FC00020DB9348DFED937AB0EE467A314600234A
:103FD00003E09C4208DBB0EC017AF1EC016A0133AA
:103FE0009D42E6EE877AF4DA5AAB03EB8403A345ED
:103FF00043ED287AA6F1040604F1010305D0002D53
:104000001C46DEDADFED837AEEE7689902291CDCD4
:10401000002900F395800FD132ABDFED7E7A9C440E
:104020003CED017A634577EE877AF9D10AB1F1EE7A
:10403000677A069BC3ED007A19EE903A03F0070009
:104040005BB0BDEC048BBDE8F08F689B032BF3D114
:10405000BBF1000F00F0D4800EF5B4736B4432A9AD
:1040600013ED287A01EB8B0373ED017AF0EE476ACA
:1040700037EE277A994277EEC77A83ED007A77EEAA
:10408000A67AC3ED017AEFD1BBF1010F40F3B880FE
:104090000BF1804B0EF5B4730BF1FF3B0DEB030EF0
:1040A0004FEA8B0B0BF104031EED287A0B4433A867
:1040B00073ED017AF0EE476A37EE277A984277EE91
:1040C000C77A83ED007A77EEA67AC3ED017AEFD155
:1040D0000BF1080BDFED4F7A01EB0B03083133EDE9
:1040E000017A994277EE877AF9D1002A56D106995A
:1040F000329A339B0A604B60C1ED027A9CE705F16E
:10410000FF3C57F82C3003F07F0347F82C30B8E61B
:1041100008230793002302935FE519EE903A002DE0
:1041200003F1010309EE903AC8BF02223FF76EAED9
:10413000F7EE007A37EEC88A0222F4E5002191E614
:1041400032A9DFED347A01EB830333ED017A994232
:1041500077EE877AF9D19DED327A8ABB069BBBF167
:10416000000FC3ED007A77EE677A0BDD33A90123E8
:10417000B1EC017A01339B4577EE877AF8DA0AB120
:10418000F1EE677A069BC3ED017A55E7BDEEC00AF2
:104190009B4610EE101A47F82310E9E6DDED326A6F
:1041A0009DED337A069BF1EE666AB1EE477AF1EE49
:1041B000677AC3ED006A83ED017AC3ED027A3BE7CB
:1041C000069BF1EE676ABBF1000F77EE677AC3EDED
:1041D000006ACBDCD4E7689B022B0DDC002B14DCDF
:1041E0007FF42AAFDFED0B7A002A3FF422AF1EE7FF
:1041F000039B4FEA830C35E5689B032B7FF41CAFD0
:10420000DFED047A002AC9D171E7DFED027AA2E777
:10421000DCF515080000000008B510EE103A23F098
:104220000042B2F1465FF0EE407A0FDABDEEC07A9E
:1042300017EE101A01BB431C134300F0A0800128A5
:1042400003D0BFEE007A87EE270A08BD50498A42A4
:1042500012DB002BB8BFF1EE407A9FED4E7A9FED56
:104260004E0AB8BFF1EE600A70EE677A37EE600A68
:10427000DFED4A0A70EE277A67EEA76ADFED484A5B
:10428000DFED485A9FED485A9FED486A404926EEB7
:10429000A67A8A42E7EE245AA7EE056ADFED444A81
:1042A0009FED445AE5EE874AA6EE075ADFED425AE3
:1042B0009FED426AE4EE875AA5EE076ADFED404AB9
:1042C0009FED405AE5EE874AA6EE075A9FED3E6AFB
:1042D000DFED3E5AA4EE876AE5EE075AB0EE467A65
:1042E000A5EEA67A27EEA65AB0EE606AA7EE056A9A
:1042F000DFED374AE6EE260AE5EE240A37EEA00A9D
:104300001FDA0128A1D0BFEE007AC7EE006A314B58
:1043100010EE102A1A4006EE102A16EE902A76EEBB
:10432000677A134000EE103AB7EE007A70EEE70AB3
:10433000F0EE477AE6EE007AE0EE807AA7EEA60A83
:1043400008BD07EE100AB8EEC77A60EE005A30EEEC
:10435000070A9B17C5EE806A03F00203C3F101034D
:10436000B0EE006A76EEE00A00EE103A77EEE07A00
:10437000B8EEC00AA7EEC67A20EE070A08BDFDF720
:10438000CDF8B7EE007AF0EE407A87EE270A08BD46
:1043900040A12C3F68212233DA0F493F0000000082
:1043A0005FAE9BB745F4A3388453D9377AC09538AC
:1043B000C8261A3AB937813916696B3B48DEBE3ACE
:1043C000A427B33C1F37113C8988083ED10D5D3DC1
:1043D000ABAAAA3E00F0FFFF38B5B0EE407B17EE67
:1043E000905A794B25F000449C422DED0C8B16DD44
:1043F000764B9C420EDC09D09FED577B9FED580B0E
:10440000002D37FE000BBDEC0C8B38BD10EE103AC2
:10441000002BF1D037EE070BBDEC0C8B38BD6C4B8D
:104420009C4259DCA3F1DE739C4249DD4FF0FF3220
:104430009FED4DAB27EE075B25EE056B9FED4C8B9B
:104440009FED4D1BA6EE0A8B9FED4D3BA8EE061B84
:104450009FED4DBBA1EE063B9FED4DDBA3EE06BBF2
:104460009FED4D9BABEE06DB2DEE05DB9FED4C0B80
:104470009FED4D2BA6EE090B9FED4D4BA0EE062BAD
:104480009FED4DCBA2EE064B531CA4EE06CB2CEEBB
:1044900006CB36D03DEE0CDB4E4B03EBC20393ED67
:1044A000000B93ED086B9DEE070B30EE470B002DD4
:1044B00036EE400BA7DAB1EE400BBDEC0C8B38BDED
:1044C0009FED3F6BB7EE005B30EE066BB4EEC56B55
:1044D000F1EE10FAAADD96E700F082F83E4B9C421E
:1044E00018DCA3F550239C4229DCB0EE007BBFEE24
:1044F000006B30EE075BA0EE076B002286EE057BBB
:1045000096E73DEE0CDBADEE477BBDEC0C8BB0EEE1
:10451000470B38BD314B9C420BDAB7EE087BB7EE48
:10452000006B30EE475BA0EE076B022285EE067B48
:104530007EE7BFEE006B032286EE007B78E7B7EEE6
:10454000007B012230EE476B30EE070B86EE007BDE
:104550006EE700BFAFF30080182D4454FB21F93FF4
:10456000182D4454FB21F9BF11DA22E33AAD903FF4
:10457000EB0D76244B7BA93F513DD0A0660DB13F9A
:104580006E204CC5CD45B73FFF8300922449C23F02
:104590000D5555555555D53F2F6C6A2C44B4A2BFC7
:1045A0009AFDDE522DDEADBF6D9A74AFF2B0B3BF8F
:1045B000711623FEC671BCBFC4EB98999999C9BF07
:1045C0009C7500883CE4377EFFFF0F440000F07FBD
:1045D000FFFFDB3F04F61508FFFFF23F00800340BA
:1045E00051EC100B10EE102A21F0004343EC102B7D
:1045F000704700BF82B08DED000B01990098C1F3A8
:104600000A52A2F2FF33132B31DC002B21DB394A93
:104610001A4101EA020C5CEA000C2DD09FED337BBD
:104620009DED006B36EE077BB5EEC07BF1EE10FA28
:1046300009DD002904DA4FF4801040FA03F319442D
:1046400021EA020100200B46024643EC102B02B087
:1046500070479FED267B30EE077BB5EEC07BF1EE19
:1046600010FAF0DD002928DB00200146EBE7332BB0
:1046700006DDB3F5806F1BD09DED000B02B07047D7
:10468000A2F213424FF0FF3C2CFA02F20242F3D0A6
:104690009FED167B9DED006B36EE077BB5EEC07B84
:1046A000F1EE10FACFDD002910DB20EA0200CAE7A4
:1046B0009DED007B37EE070BE0E721F000430E4A4B
:1046C0001843002818BF11460020BCE7142B09D05E
:1046D0004FF0010CC3F134030CFA03F3181828BF90
:1046E0006144E2E70131E0E7AFF300809C750088A8
:1046F0003CE4377EFFFF0F000000F0BF9FED010B91
:10470000704700BF000000000000F87F53EC102B42
:10471000C3F30A5100B59C4671BB10EE101A23F08A
:10472000004C5CEA010125D09FED2E7B394920EE3B
:10473000077B884253EC172B4CDBC3F30A519C4692
:104740003639014440F2FE7E71451DDC002937DC1C
:1047500011F1350F25DA4CF25031884214DC9FED0F
:10476000230B9FED246BB0EE407B002B20FE060B4D
:1047700020EE070B5DF804FB40F2FF7E7145E0D1AF
:1047800030EE000B5DF804FB9FED1C0B9FED1D6BE5
:10479000B0EE407B002B20FE060B20EE070B5DF8F1
:1047A00004FB2CF0FF4C36312CF4E00C9FED177B12
:1047B0004CEA015343EC102B20EE070B5DF804FB91
:1047C0002CF0FF4C2CF4E00C4CEA015343EC102B82
:1047D0005DF804FB9FED050B27EE000B5DF804FB75
:1047E000AFF30080000000000000504359F3F8C20E
:1047F0001F6EA50159F3F8C21F6EA5819C75008834
:104800003CE4377E9C7500883CE437FE00000000E5
:104810000000903CB03CFFFF10EE102AC2F3C753DB
:104820007F3B162B22F0004128DC002B18DB1949B6
:1048300019410A4221D0DFED187A70EE277AF5EEA1
:10484000C07AF1EE10FA18DD002A04DA4FF4000005
:1048500040FA03F31A4422EA010300EE103A7047CB
:10486000DFED0D7A70EE277AF5EEC07AF1EE10FAF0
:1048700003DD002A08DB9FED090A7047B1F1FF4F05
:10488000FBD330EE000A7047FFEE007A002900FEED
:10489000270A7047FFFF7F00CAF24971000000003D
:1048A00082B08DED010A019B33F0004229D0B2F1B4
:1048B000FF4F22D213F0FF4F27D19DED017ADFED9C
:1048C000297A294B67EE277A9842CDED017A36DBBB
:1048D000019BC3F3C752193A0244FE2A19DD9FED2A
:1048E000230A9FED237A019BF0EE407A002B20FEF5
:1048F000070A20EE270A02B0704730EE000A02B025
:1049000070479DED010A02B07047D20D0244FE2AA5
:10491000E5DC002A0BDC12F1160F17DA4CF25033EB
:104920009842DCDC9FED130A9FED137ADBE723F05E
:10493000FF4343EAC25300EE103A02B070479FEDC6
:104940000D0ADDED017A27EE800AD8E7193223F04F
:10495000FF4343EAC253DFED097A07EE103A27EE30
:10496000270ACCE70000004CB03CFFFFCAF24971B7
:10497000CAF249F16042A20D6042A28D00000033EC
:1049800070B54FF0FF0C4CF4E06C1CEA11541DBFE5
:104990001CEA135594EA0C0F95EA0C0F00F0DEF8B0
:1049A0002C4481EA030621EA4C5123EA4C5350EA95
:1049B000013518BF52EA033541F4801143F48013E6
:1049C00038D0A0FB02CE4FF00005E1FB02E506F077
:1049D0000042E0FB03E54FF00006E1FB03569CF0CC
:1049E000000F18BF4EF0010EA4F1FF04B6F5007FD2
:1049F00064F5407404D25FEA4E0E6D4146EB060644
:104A000042EAC62141EA55514FEAC52040EA5E50CC
:104A10004FEACE2EB4F1FD0C88BFBCF5E06F1ED876
:104A2000BEF1004F08BF5FEA500E50F1000041EBAD
:104A3000045170BD06F0004646EA010140EA02005A
:104A400081EA0301B4EB5C04C2BFD4EB0C0541EA7C
:104A5000045170BD41F480114FF0000E013C00F391
:104A6000AB8014F1360FDEBF002001F0004170BDB5
:104A7000C4F10004203C35DA0C341BDC04F11404CE
:104A8000C4F1200500FA05F320FA04F001FA05F25A
:104A900040EA020001F0004221F0004110EBD37027
:104AA00021FA04F642EB06015EEA430E08BF20EA53
:104AB000D37070BDC4F10C04C4F1200500FA04F3F6
:104AC00020FA05F001FA04F240EA020001F0004188
:104AD00010EBD37041F100015EEA430E08BF20EAFB
:104AE000D37070BDC4F1200500FA05F24EEA020E43
:104AF00020FA04F301FA05F243EA020321FA04F072
:104B000001F0004121FA04F220EA020000EBD37028
:104B10005EEA430E08BF20EAD37070BD94F0000F28
:104B20000FD101F00046400041EB010111F4801F5C
:104B300008BF013CF7D041EA060195F0000F18BF0D
:104B4000704703F00046520043EB030313F4801F49
:104B500008BF013DF7D043EA0603704794EA0C0F03
:104B60000CEA135518BF95EA0C0F0CD050EA410619
:104B700018BF52EA4306D1D181EA030101F0004196
:104B80004FF0000070BD50EA410606BF10461946BE
:104B900052EA430619D094EA0C0F02D150EA0136CA
:104BA00013D195EA0C0F05D152EA03361CBF10460B
:104BB00019460AD181EA030101F0004141F0FE41AA
:104BC00041F470014FF0000070BD41F0FE4141F42E
:104BD000780170BD4FEA410212F5001215D211D5CD
:104BE0006FF47873B3EB625212D94FEAC12343F0EA
:104BF000004343EA505311F0004F23FA02F018BF6C
:104C0000404270474FF00000704750EA013005D134
:104C100011F0004008BF6FF0004070474FF00000F7
:104C2000704700BF4FEA4102B2F1E04324BFB3F541
:104C3000001CDCF1FE5C0DD901F0004C4FEAC00213
:104C40004CEA5070B2F1004F40EB830008BF20F0F7
:104C50000100704711F0804F21D113F13872BCBFB1
:104C600001F00040704741F480114FEA5252C2F106
:104C70001802C2F1200C10FA0CF320FA02F018BF4F
:104C800040F001004FEAC1234FEAD32303FA0CFCA2
:104C900040EA0C0023FA02F34FEA4303CCE77FEA31
:104CA000625307D150EA01331EBF4FF0FE4040F47B
:104CB0004000704701F0004040F0FE4040F400002A
:104CC000704700BF002103F025B800BF0A22002171
:104CD00003F098B90A23002203F074B90A220021D4
:104CE00003F090B90A23002203F06CB910B5054C0B
:104CF00034B113460A4601460220AFF3008010BDCE
:104D0000204610BD00000000014B1868704700BF2E
:104D10000422003010B4044C03460A4620685DF8B3
:104D2000044B194600F010B80422003000B5054BC2
:104D300083B0014601AA186800F006F803B05DF8D8
:104D400004FB00BF042200302DE9F047DFF8748037
:104D500006468946174604F07FF9D8F8005055B149
:104D600099F800301C4673B14C4602E014F8013F3C
:104D70003BB13D2BFAD1304604F070F90020BDE87C
:104D8000F087A4EB090428680028F4D0224649469D
:104D900001F090FD28B92B681A5D3D2A03EB040A47
:104DA00004D055F8040F0028F0D1E4E7D8F800301B
:104DB000ED1AAD1030463D6004F050F90AF10100E3
:104DC000BDE8F0876822003000B583B001AAFFF784
:104DD000BBFF03B05DF804FBF8B5D0E90067634A98
:104DE00000230C4630463946FBF7B2FD5F4A0546C4
:104DF000394630460023FBF7ABFD002AC0F2AC80F9
:104E000005F52F2303F66C235948A0FB0250C00A76
:104E10004FF4616101FB10225649A060A1FB020121
:104E2000490955486160C1EB0111A2EB8102D91C0F
:104E300080FB015008442260CA17C2EBA002C2EBFB
:104E4000C2028A1A48BF0732002BA26179DB4B4AA3
:104E5000D91782FB0302C1EBE2314948494A4A4E65
:104E600000FB01308508A2FB053200EBD222A6FB35
:104E70000535464BA2EBD5120509A3FB0535A2EB80
:104E80001512434DA5FB023CA2EB0C030CEB530C9B
:104E9000404D9308A6FB03234FEA1C22A5FB0265A5
:104EA000DB09C3EB5513034440F26D1000FB1233D2
:104EB00003EB830538480235A0FB050C4FEADC1CE8
:104EC00040F2F9560CEBCC00B54200EB0010334D2C
:104ED00000F10200A5FB00504FF4C87694BF0225F4
:104EE0006FF0090506FB01216544012D98BF0131D2
:104EF0005E1CB3F5997FA6EB90000BD3A3F59973D5
:104F0000A1F26C71E3610023E060C4E90451236203
:104F10002046F8BD96070BD0214E06FB02F2214E2B
:104F2000B6EB321F2CBF012200223B331344E7E7CC
:104F30001B4E1D4F02FB06F6B7EBB60FECD201225B
:104F4000F3E70E49A3F50E32A2F52C7281FB0201A4
:104F5000D217C2EBE13180E702F5A83205F52F2325
:104F600002F5C07203F66B234EE700BF80510100CB
:104F7000C5B3A2918988888893244992BD066B396C
:104F80004FC5FDFF7F206B39D97CC65941D67200D1
:104F900061F319671F85EB51D7802BD6CDCCCCCCD4
:104FA000295C8FC20AD7A300285C8F02024B1844E9
:104FB000407800F00700704744F61508024B18448B
:104FC000407800F00300704744F61508024B18447F
:104FD000407800F00800704744F61508F03070473C
:104FE000004870476023003000487047602300305D
:104FF00001F0FF01102A2BDB10F0070F08D010F88A
:10500000013B013A8B422DD010F0070F42B3F6D18D
:10501000F0B441EA012141EA014122F007047FF0A6
:1050200000070023F0E80256083C85EA010586EAFD
:10503000010685FA47F5A3FA87F586FA47F6A5FA39
:1050400087F68EB9EED1F0BC01F0FF0102F0070245
:1050500032B110F8013B013A83EA010313B1F8D1F0
:105060000020704701387047002D06BF35460338D1
:10507000073815F0010F07D1013015F4807F02BF0A
:10508000013015F4C03F0130F0BC0138704700BF5B
:10509000032A70B515D940EA010C1CF0030F044631
:1050A0000B4621D1194620460E680568B54204F129
:1050B000040403F1040317D1043A032A20461946D5
:1050C000F0D8541EA2B100F1FF3C013901E0C31831
:1050D0000CD01CF801EF11F8012F9645A4EB0C033E
:1050E000F5D0AEEB020070BD541EECE7184670BD63
:1050F000104670BD844641EA000313F003036DD1EE
:10510000403A41D351F8043B40F8043B51F8043B8A
:1051100040F8043B51F8043B40F8043B51F8043B91
:1051200040F8043B51F8043B40F8043B51F8043B81
:1051300040F8043B51F8043B40F8043B51F8043B71
:1051400040F8043B51F8043B40F8043B51F8043B61
:1051500040F8043B51F8043B40F8043B51F8043B51
:1051600040F8043B51F8043B40F8043B51F8043B41
:1051700040F8043B51F8043B40F8043B51F8043B31
:1051800040F8043B403ABDD2303211D351F8043BD1
:1051900040F8043B51F8043B40F8043B51F8043B11
:1051A00040F8043B51F8043B40F8043B103AEDD280
:1051B0000C3205D351F8043B40F8043B043AF9D2D1
:1051C000043208D0D2071CBF11F8013B00F8013BA4
:1051D00001D30B8803806046704700BF082A13D3B1
:1051E0008B078DD010F003038AD0C3F10403D21AC9
:1051F000DB071CBF11F8013B00F8013B80D331F8FD
:10520000023B20F8023B7BE7043AD9D3013A11F87C
:10521000013B00F8013BF9D20B7803704B784370E7
:105220008B788370604670472DE9F04F012BADF20B
:105230001C4D07468A46154640F21F814FF0010972
:10524000002448464FF0FF364A4606E0A2EB060926
:1052500014460120221893420FD9A91915F802C04B
:10526000095C8C45F2D300F08C804FF00109264692
:1052700048464C4422189342EFD84FF0010E0024C8
:1052800070464FF0FF3C724606E0A2EB0C0E14464F
:105290000120221893420FD905EB0C0115F802806A
:1052A000095C8845F1D872D04FF0010EA4467046D3
:1052B000744422189342EFD80CF1010C0136664574
:1052C00001D8F146664605AA0DF2144142F8043FA2
:1052D0008A42FBD1002B00F0CB805C1E691E05EBDF
:1052E000040C0DF1180811F8010FCA431A442A449E
:1052F000614548F82020F6D1324605EB09012846E1
:105300000193FFF7C5FE019B002868D1AAEB0301BA
:10531000A3EB0903024602930346701E0590C6F1F3
:105320000100CDE903908A4601950AE022B1039A73
:105330009142029A38BF11460B4453454FF0000288
:1053400048D807EB030B1BF8041058F8211000296C
:10535000ECD1B242114638BF3146A1421DD201986C
:105360004D1E05445818384402E00131A14214D2C0
:1053700010F801CB15F801EFE645F6D0049A134476
:10538000DAE7814512BF01304C44012062E77045E5
:105390000ABF2418013001207BE7B242059972D27E
:1053A000019D98193844354402E08A425ED0614636
:1053B00010F801CD15F801EDE64501F1010901F103
:1053C000FF3CF2D001324A455BD8039A134453455F
:1053D000029AB6D900200DF21C4DBDE8F08FAAEB61
:1053E000030A9B1BB34238BF33464FF00009013319
:1053F00007EB09000293C6F101030193035D58F81E
:10540000233006F1FF3B4BB19944D145E2D807EB7D
:105410000900035D58F82330002BF5D1A64213D2C2
:1054200006EB09023A4405EB0B01334602E0013377
:10543000A34209D212F801CB11F801EFE645F6D0EC
:10544000019A91449944E0E7002EC4D006EB09018B
:105450003944AA1901E0AB42BDD012F801ED11F8B0
:1054600001CDE6451346F6D0029BCDE79146A9E76C
:105470004FF0FF340DF118083EE74FF00109002608
:1054800021E75846A7E7B1469CE700BF2DE9F04762
:105490000446C0B0002B69D0012B0D4690461F4634
:1054A00000F087808B425DD8CD1A022B00EB0506F9
:1054B00060D0B3F5807F00F2838000214FF48072CA
:1054C00068465D1E00F0FEF8404601210246437822
:1054D0001278A3EBC203DBB201300DF803100131E7
:1054E0008D42F3D808EB07034FF0000A13F8022CA3
:1054F00018F80530A3EBC203DBB21DF803900DF8DA
:105500000350A5EB0909B44201D92BE063B92C443F
:10551000A64214F8013C94F800C0ACEBC30C5FFA4F
:105520008CFC1DF80C30F1D29D42A4EB0304EAD8A8
:105530000F2D07D9042208EB0A0104EB0A00FFF73C
:10554000A7FD60B92A4641462046FFF7A1FD68B194
:10555000BAF1030F8CBFAAF1040AA7F1050A4C4463
:10556000B442D4D9002040B0BDE8F087204640B016
:10557000BDE8F08713785578017845EA034503467E
:1055800013F8012F9E4242EA01421DD39542EDD00D
:10559000013601E09542E6D0184613F8011FB342E8
:1055A00041EA0242F6D1954208BF06F1FF30D9D157
:1055B000D9E711782A4640B0BDE8F047FFF718BD9B
:1055C00040B0BDE8F0472FE61E46ECE788420DD913
:1055D0008B1883420AD900EB020CBAB1624613F869
:1055E00001CD02F801CD9942F9D170470F2A0ED8AA
:1055F000034602F1FF3C4AB10CF1010C013B8C4423
:1056000011F8012B03F8012F6145F9D1704740EAE9
:1056100001039B0750D1A2F1100370B501F1200CDA
:1056200023F00F0501F1100E00F11004AC441B092A
:105630005EF8105C44F8105C5EF80C5C44F80C5C9E
:105640005EF8085C44F8085C5EF8045C44F8045CAE
:105650000EF1100EE64504F11004E9D1013312F009
:105660000C0F01EB031102F00F0400EB031327D022
:10567000043C24F003064FEA940C1E441C1F8E4683
:105680005EF8045B44F8045FB442F9D10CF1010404
:1056900002F0030203EB840301EB840102F1FF3CFF
:1056A0004AB10CF1010C013B8C4411F8012B03F8B9
:1056B000012F6145F9D170BD02F1FF3C03469BE724
:1056C0002246EBE7830730B548D0541E002A3FD06E
:1056D000CAB2034601E0013C3AD303F8012B9D070F
:1056E000F9D1032C2DD9CDB245EA05250F2C45EA79
:1056F000054536D9A4F1100222F00F0C03F1200E5B
:10570000E6444FEA121C03F1100242E9045542E953
:10571000025510327245F8D10CF1010214F00C0F51
:1057200003EB021204F00F0C13D0ACF1040323F0CE
:1057300003030433134442F8045B9342FBD10CF09F
:1057400003042CB1CAB21C4403F8012B9C42FBD1C8
:1057500030BD64461346002CF4D1F9E703461446E5
:10576000BFE71A46A446E0E7F0B52DED028BB0EE98
:10577000408B85B0154618EE902A0D9E0C9F002A8E
:10578000B6BF2D220022B1EE408B662E0C461A7059
:1057900016D0462E14D026F02003452B2FD0B0EE85
:1057A000480B03AA019202AA00923B460A46022134
:1057B00002F0C2FD672E2ED1EB072ED4039B17E01B
:1057C00003AB019302AB009322463B460321B0EEAC
:1057D000480B02F0B1FD0378302B00EB040C30D005
:1057E0003968B5EE408BF1EE10FA61441CD10B46DE
:1057F0000E9A1B1A136005B0BDEC028BF0BD03AA14
:105800000134019202AA00923B4622460221B0EEE8
:10581000480B02F091FD472ECED0B5EE408BF1EE55
:1058200010FA00EB0401E2D0039B9942E0D94FF05B
:10583000300C5A1C039283F800C0039B8B42F8D3B0
:10584000D6E7B5EE408BF1EE10FAC9D0C4F10101F4
:105850003960C6E7F0B5002983B002703FDB841CD5
:105860002B230929437030DD0DF107051F4FAC468E
:1058700087FB0132CB17C3EBA20303EB8302A1EB3F
:1058800042020E463032632EE6460CF8012C1946D1
:105890000CF1FF3CECDC3031AEF10203C9B29D42A9
:1058A0000CF8011C1FD96346224601E013F8011BC6
:1058B00002F8011BAB42F9D10DF10903A3EB0E0E67
:1058C000A644AEEB000003B0F0BD3023A646194459
:1058D0000EF8023B6170AEEB000003B0F0BD494230
:1058E000841C2D23BDE7A646F5E700BF6766666604
:1058F0002DE9F04F8BB00C46DDF850A016461F4640
:105900000546FFF76DFBD0F80080404600F038FFF9
:1059100000230893DAF800300490073323F00703DC
:1059200093ED000B9FEDAA7BB0EEC06B0833B4EE95
:10593000476BF1EE10FA226894F81890CAF800301C
:1059400084ED120B00F38980B4EE400BF1EE10FAF7
:1059500080F12F8261684B1C2BD0B9F1670F64D0A6
:10596000B9F1470F61D042F48062002322600393B3
:1059700008AB029307AB0093CDF804900DF11B0325
:105980002846FFF7F1FE8346B9F1650F079932D833
:1059900001394A4604F150000791FFF75BFF089A6E
:1059A0001318012A8246236140F37A81013323616F
:1059B00033E00621616042F4806200232260039399
:1059C00008AB029307AB0093CDF804900DF11B03D5
:1059D0002846FFF7C9FE09F0DF03472B8346D3D1E2
:1059E0000799C81C80F2EC80A9F102095FFA89F9D5
:1059F000B9F1650FCCD9B9F1660F00F0F380089BBF
:105A00008B4240F3FA800029D4BFC1F10202012287
:105A100013442361A1654FF0000A9DF81B30002B51
:105A200031D02D2384F843302DE0002900F021816E
:105A300042F4806200232260039308AB029307AB19
:105A40000093CDF804900DF11B032846FFF78CFE60
:105A500007998346C81CC7DBB2E0B5EEC00BF1EE78
:105A600010FA02D52D2384F843305B4B5B4822F0BB
:105A70000402B9F1470F94BF9B468346032322607B
:105A800023614FF0000A0097334609AA21462846B1
:105A900000F0B0F9013025D0236858052DD42369D2
:105AA0005A4631462846B84701301BD02368E06883
:105AB00013F0020F099B1AD0C21A002A17DD04F155
:105AC00019094FF0000804E0E068099BC21A42453A
:105AD0000DDD01234A4631462846B847013008F11A
